:020000040800F2
:1000000000500020850200087102000873020008F9
:10001000750200087702000879020008000000005D
:100020000000000000000000000000007B0200084B
:100030007D020008000000007F0200088102000825
:10004000CD020008CD020008CD020008CD02000854
:10005000CD020008CD020008CD020008CD02000844
:10006000CD020008CD020008CD020008CD02000834
:10007000CD020008CD020008CD020008CD02000824
:10008000CD020008CD020008CD020008CD02000814
:10009000CD020008CD020008CD020008CD02000804
:1000A000CD020008CD020008CD020008CD020008F4
:1000B000CD020008CD020008CD020008CD020008E4
:1000C000CD020008CD020008CD020008CD020008D4
:1000D000CD020008CD020008CD020008CD020008C4
:1000E000CD020008CD020008CD020008000000008B
:1000F0000000000000000000000000000000000000
:0C01000000000000000000005FF808F1A3
:10010C0010B5054C237833B9044B13B10448AFF345
:10011C0000800123237010BD2C040020000000007F
:10012C00FC05000808B5034B1BB103490348AFF3AA
:10013C00008008BD0000000030040020FC05000811
:10014C0000B583B00121042000F0B0F9044B1B680A
:10015C00019301A9034800F043F903B05DF804FBD7
:10016C00140600080008014008B50121094800F0F8
:10017C0090F908B1002008BD142000F05AF80121B4
:10018C00044800F086F90028F9D0142000F051F84A
:10019C000120F0E70008014000B583B001211020D8
:1001AC0000F084F9044B1B68019301A9034800F08B
:1001BC0017F903B05DF804FB1806000800100140A5
:1001CC0008B501224FF40051014800F069F908BD4F
:1001DC000010014008B54FF400510A4800F059F9DD
:1001EC0048B901224FF4005100F1804000F58830ED
:1001FC0000F056F908BD00224FF40051014800F000
:10020C004FF9F7E70010014000EBC000C0004FF0C1
:10021C00E023586100229A6105221A614FF0E02315
:10022C001B6913F4803FF9D04FF0E02304221A61CC
:10023C00704710B504E04FF47A70FFF7E5FF2046E5
:10024C00441E0028F7D110BD08B5FFF7A5FFFFF736
:10025C0077FFFFF7B5FFFFF787FF0128FBD1FFF70B
:10026C00B9FFF8E77047FEE7FEE7FEE7FEE77047E9
:10027C00704770477047000000F08AF80B480C4933
:10028C000C4A002302E0D458C4500433C4188C42E6
:10029C00F9D3094A094C002301E013600432A2424D
:1002AC00FBD300F011F9FFF7CFFF704700000020DF
:1002BC002C0400202C0600082C0400204C040020E8
:1002CC00FEE7000082B00023019300932C4A1368D0
:1002DC0043F4803313602A4B1B6803F40033009300
:1002EC00019B01330193009B1BB9019BB3F5A06FDC
:1002FC00F1D1234B1B6813F4003F06D0012300936C
:10030C00009B012B04D002B0704700230093F7E749
:10031C001C4B1A6842F010021A601A6822F0030291
:10032C001A601A6842F002021A60A3F580535A68E8
:10033C005A605A685A605A6842F480625A605A6825
:10034C0022F47C125A605A6842F4E8125A601A6815
:10035C0042F080721A600A4B1B6813F0007FFAD0CF
:10036C00074B5A6822F003025A605A6842F00202A4
:10037C005A60034B5B6803F00C03082BF9D1C2E7FE
:10038C00001002400020024008B5FFF79BFF08BD9B
:10039C0008B5104B1A6842F001021A6059680E4AEF
:1003AC000A405A601A6822F0847222F480321A6071
:1003BC001A6822F480221A605A6822F4FE025A60EB
:1003CC004FF41F029A60FFF7DFFF044B4FF00062FF
:1003DC009A6008BD001002400000FFF800ED00E03C
:1003EC0030B5CB7803F00F02964613F0100F03D004
:1003FC0091F802E04EEA020E0B7803B30468002376
:10040C0001E042610133072B18D801229A40B1F860
:10041C0000C032EA0C05F5D14FEA830C0F2505FA22
:10042C000CF524EA05040EFA0CFC4CEA0404CD7815
:10043C00282DE6D0482DE5D10261E3E704600B8856
:10044C00FF2B25D94468002303E0CD78482D1CD020
:10045C000133072B1BD803F1080C012202FA0CF212
:10046C00B1F800C032EA0C05F2D14FEA830C0F252B
:10047C0005FA0CF524EA05040EFA0CFC4CEA04040B
:10048C00CD78282DE1D14261DFE70261E0E74460DD
:10049C0030BD8368194201D001207047002070479D
:1004AC000AB10161704741617047000021B1054AF2
:1004BC009369184390617047024A936923EA0000DC
:1004CC00906170470010024070B50D4E0D4D761BBB
:1004DC00B61006D0002455F8043B01349847A642C8
:1004EC00F9D1094E094D00F083F8761BB61006D0F1
:1004FC00002455F8043B01349847A642F9D170BD4D
:10050C00200600082006000828060008200600081F
:10051C00024B13B1024800F005B870470000000010
:10052C003D050008002301461A46184600F01AB88B
:10053C0038B5084B084D5B1B9C1007D0043B1D4481
:10054C00013C55F804399847002CF9D1BDE83840E6
:10055C0000F054B82C06000828060008704700BFAD
:10056C00704700BF2DE9F047DFF87CA00646DAF8AB
:10057C00000098460F469146FFF7F0FF1B4B1B6897
:10058C00D3F8484124B365681F2D26DC5EB96B1C7B
:10059C000235DAF80000636044F82570FFF7E0FFDD
:1005AC000020BDE8F087012304EB8501C1F8889099
:1005BC00D4F88821AB401A43022EC4F88821C1F824
:1005CC000881E4D1D4F88C211343C4F88C31DEE7D4
:1005DC0003F5A674C3F84841D5E7DAF80000FFF735
:1005EC00BFFF4FF0FF30DCE7280400201C0600089A
:1005FC00F8B500BFF8BC08BC9E467047F8B500BF04
:08060C00F8BC08BC9E467047D3
:0C0614000100034800200310000000203B
:080620001D050008310100086E
:040628000D010008B8
:10062C0000000000EC02002054030020BC0300205A
:10063C0000000000000000000000000000000000AE
:10064C00000000000000000000000000000000009E
:10065C00000000000000000000000000000000008E
:10066C00000000000000000000000000000000007E
:10067C00000000000000000000000000000000006E
:10068C00000000000000000000000000000000005E
:10069C00000000000000000000000000000000004E
:1006AC00000000000000000000000000000000003E
:1006BC00000000000000000000000000000000002E
:1006CC00000000000000000001000000000000001D
:1006DC000E33CDAB34126DE6ECDE05000B000000E2
:1006EC0000000000000000000000000000000000FE
:1006FC0000000000000000000000000000000000EE
:10070C0000000000000000000000000000000000DD
:10071C0000000000000000000000000000000000CD
:0C0A4C0000000000000000004804002032
:040000050800028568
:00000001FF
