:020000040800F2
:10000000005000207D020008690200086B02000811
:100010006D0200086F020008710200080000000075
:100020000000000000000000000000007302000853
:10003000750200080000000077020008790200083D
:10004000C5020008C5020008C5020008C502000874
:10005000C5020008C5020008A1010008C502000889
:10006000C5020008C5020008C5020008C502000854
:10007000C5020008C5020008C5020008C502000844
:10008000C5020008C5020008C5020008C502000834
:10009000C5020008C5020008C5020008C502000824
:1000A000C5020008C5020008C5020008C502000814
:1000B000C5020008C5020008C5020008C502000804
:1000C000C5020008C5020008C5020008C5020008F4
:1000D000C5020008C5020008C5020008C5020008E4
:1000E000C5020008C5020008C502000800000000A3
:1000F0000000000000000000000000000000000000
:0C01000000000000000000005FF808F1A3
:10010C0010B5054C237833B9044B13B10448AFF345
:10011C0000800123237010BD2C040020000000007F
:10012C005807000808B5034B1BB103490348AFF34C
:10013C00008008BD000000003004002058070008B3
:10014C0030B585B00121052000F05EFA0F4D2C462C
:10015C0054F8043B039303A90D4800F0D5F9012191
:10016C00002000F037FA01AB94E8030083E80300A9
:10017C00184600F06DF94FF4C06000F02DF9EB68F3
:10018C000093684600F032F905B030BD70070008E6
:10019C000008014008B5012000F0A0F9012803D0A7
:1001AC00012000F0ABF908BD00F034F8F8E70000CE
:1001BC0000B583B00121042000F026FA044B1B6823
:1001CC00019301A9034800F09FF903B05DF804FB0B
:1001DC00800700080008014000B583B00121102001
:1001EC0000F012FA044B1B68019301A9034800F0BC
:1001FC008BF903B05DF804FB840700080010014084
:10020C0008B501224FF40051014800F0DDF908BD9A
:10021C000010014008B54FF400510A4800F0CDF928
:10022C0048B901224FF4005100F1804000F58830AC
:10023C0000F0CAF908BD00224FF40051014800F04B
:10024C00C3F9F7E70010014008B5FFF7C5FFFFF74A
:10025C00AFFFFFF775FFFFF7D3FFFEE77047FEE731
:10026C00FEE7FEE7FEE770477047704770470000F7
:10027C0000F08AF80B480C490C4A002302E0D458D1
:10028C00C4500433C4188C42F9D3094A094C0023D6
:10029C0001E013600432A242FBD300F0C3F9FFF774
:1002AC00D3FF7047000000202C04002098070008A2
:1002BC002C0400204C040020FEE7000082B0002338
:1002CC00019300932C4A136843F4803313602A4B38
:1002DC001B6803F400330093019B01330193009BD3
:1002EC001BB9019BB3F5A06FF1D1234B1B6813F421
:1002FC00003F06D001230093009B012B04D002B0D9
:10030C00704700230093F7E71C4B1A6842F0100269
:10031C001A601A6822F003021A601A6842F002028C
:10032C001A60A3F580535A685A605A685A605A6822
:10033C0042F480625A605A6822F47C125A605A68FD
:10034C0042F4E8125A601A6842F080721A600A4B42
:10035C001B6813F0007FFAD0074B5A6822F0030297
:10036C005A605A6842F002025A60034B5B6803F011
:10037C000C03082BF9D1C2E7001002400020024008
:10038C0008B5FFF79BFF08BD08B5104B1A6842F083
:10039C0001021A6059680E4A0A405A601A6822F023
:1003AC00847222F480321A601A6822F480221A6055
:1003BC005A6822F4FE025A604FF41F029A60FFF74B
:1003CC00DFFF044B4FF000629A6008BD0010024042
:1003DC000000FFF800ED00E040F0BF6040F400309A
:1003EC00014BD860704700BF00ED00E0C378FBB153
:1003FC00154BDA68D243C2F30222C2F1040C0F236C
:10040C0023FA02F2417801FA0CF1837813400B4382
:10041C001B010278DBB20D490A4482F800330378E1
:10042C0003F01F005B090122824041F82320704732
:10043C00037803F01F015B0901228A402033034932
:10044C0041F82320704700BF00ED00E000E100E020
:10045C008379002B35D010B41F4B1A68016822EA3F
:10046C0001021A605A68016822EA01025A60027994
:10047C0002F1804202F58232116804682143116056
:10048C009A68016822EA01029A60DA68016822EA35
:10049C000102DA604379102B09D003F1804303F594
:1004AC0082331A6801680A431A6010BC70470A4B01
:1004BC009A6801680A439A60DA6801680A43DA604C
:1004CC00F3E7037903F1804303F582331A6801687B
:1004DC0022EA01021A60704700040140064A1368C0
:1004EC0003405269024202D01BB900207047002021
:1004FC0070470120704700BF00040140014B586158
:10050C00704700BF0004014030B5CB7803F00F02F8
:10051C00964613F0100F03D091F802E04EEA020E4B
:10052C000B7803B30468002301E042610133072B0D
:10053C0018D801229A40B1F800C032EA0C05F5D166
:10054C004FEA830C0F2505FA0CF524EA05040EFA84
:10055C000CFC4CEA0404CD78282DE6D0482DE5D1CE
:10056C000261E3E704600B88FF2B25D94468002364
:10057C0003E0CD78482D1CD00133072B1BD803F199
:10058C00080C012202FA0CF2B1F800C032EA0C0598
:10059C00F2D14FEA830C0F2505FA0CF524EA050479
:1005AC000EFA0CFC4CEA0404CD78282DE1D1426102
:1005BC00DFE70261E0E7446030BD8368194201D097
:1005CC0001207047002070470AB1016170474161FA
:1005DC007047000010B401F0030292000F2404FADB
:1005EC0002FC8908074B023153F8214024EA0C0421
:1005FC0043F8214053F821409040044343F82140F4
:10060C0010BC70470000014021B1054A93691843A2
:10061C0090617047024A936923EA00009061704729
:10062C000010024070B50D4E0D4D761BB61006D065
:10063C00002455F8043B01349847A642F9D1094EE1
:10064C00094D00F083F8761BB61006D0002455F83F
:10065C00043B01349847A642F9D170BD8C070008C1
:10066C008C070008940700088C070008024B13B194
:10067C00024800F005B87047000000009906000819
:10068C00002301461A46184600F01AB838B5084B34
:10069C00084D5B1B9C1007D0043B1D44013C55F8D6
:1006AC0004399847002CF9D1BDE8384000F054B813
:1006BC009807000894070008704700BF704700BFF8
:1006CC002DE9F047DFF87CA00646DAF800009846E2
:1006DC000F469146FFF7F0FF1B4B1B68D3F84841C0
:1006EC0024B365681F2D26DC5EB96B1C0235DAF865
:1006FC000000636044F82570FFF7E0FF0020BDE8C0
:10070C00F087012304EB8501C1F88890D4F8882187
:10071C00AB401A43022EC4F88821C1F80881E4D1F9
:10072C00D4F88C211343C4F88C31DEE703F5A6749E
:10073C00C3F84841D5E7DAF80000FFF7BFFF4FF0E8
:10074C00FF30DCE72804002088070008F8B500BF5C
:10075C00F8BC08BC9E467047F8B500BFF8BC08BC96
:04076C009E467047EE
:100770000100034801000000000C01000601010116
:0C078000010003480020031000000020CE
:08078C007906000831010008A4
:040794000D0100084B
:1007980000000000EC02002054030020BC030020ED
:1007A8000000000000000000000000000000000041
:1007B8000000000000000000000000000000000031
:1007C8000000000000000000000000000000000021
:1007D8000000000000000000000000000000000011
:1007E8000000000000000000000000000000000001
:1007F80000000000000000000000000000000000F1
:1008080000000000000000000000000000000000E0
:1008180000000000000000000000000000000000D0
:1008280000000000000000000000000000000000C0
:1008380000000000000000000100000000000000AF
:100848000E33CDAB34126DE6ECDE05000B00000074
:100858000000000000000000000000000000000090
:100868000000000000000000000000000000000080
:100878000000000000000000000000000000000070
:100888000000000000000000000000000000000060
:0C0BB800000000000000000048040020C5
:040000050800027D70
:00000001FF
