:020000040800F2
:10000000005000207D010008690100086B01000814
:100010006D0100086F010008710100080000000078
:100020000000000000000000000000007301000854
:100030007501000800000000770100087901000840
:10004000C5010008C5010008C5010008C501000878
:10005000C5010008C5010008C5010008C501000868
:10006000C5010008C5010008C5010008C501000858
:10007000C5010008C5010008C5010008C501000848
:10008000C5010008C5010008C5010008C501000838
:10009000C5010008C5010008C5010008C501000828
:1000A000C5010008C5010008C5010008C501000818
:1000B000C5010008C5010008C5010008C501000808
:1000C000C5010008C5010008C5010008C5010008F8
:1000D000C5010008C5010008C5010008C5010008E8
:1000E000C5010008C5010008C501000800000000A6
:1000F0000000000000000000000000000000000000
:0C01000000000000000000005FF808F1A3
:10010C0010B5054C237833B9044B13B10448AFF345
:10011C0000800123237010BD2C040020000000007F
:10012C000C04000808B5034B1BB103490348AFF39B
:10013C00008008BD00000000300400200C04000802
:10014C00054B10229A61A3F580334FF440125A608C
:10015C004FF40012DA60FEE7001002407047FEE731
:10016C00FEE7FEE7FEE770477047704770470000F8
:10017C0000F08AF80B480C490C4A002302E0D458D2
:10018C00C4500433C4188C42F9D3094A094C0023D7
:10019C0001E013600432A242FBD300F09DF8FFF79C
:1001AC00CFFF7047000000202C040020340400080E
:1001BC002C0400204C040020FEE7000082B0002339
:1001CC00019300932C4A136843F4803313602A4B39
:1001DC001B6803F400330093019B01330193009BD4
:1001EC001BB9019BB3F5A06FF1D1234B1B6813F422
:1001FC00003F06D001230093009B012B04D002B0DA
:10020C00704700230093F7E71C4B1A6842F010026A
:10021C001A601A6822F003021A601A6842F002028D
:10022C001A60A3F580535A685A605A685A605A6823
:10023C0042F480625A605A6822F47C125A605A68FE
:10024C0042F4E8125A601A6842F080721A600A4B43
:10025C001B6813F0007FFAD0074B5A6822F0030298
:10026C005A605A6842F002025A60034B5B6803F012
:10027C000C03082BF9D1C2E7001002400020024009
:10028C0008B5FFF79BFF08BD08B5104B1A6842F084
:10029C0001021A6059680E4A0A405A601A6822F024
:1002AC00847222F480321A601A6822F480221A6056
:1002BC005A6822F4FE025A604FF41F029A60FFF74C
:1002CC00DFFF044B4FF000629A6008BD0010024043
:1002DC000000FFF800ED00E070B50D4E0D4D761BE3
:1002EC00B61006D0002455F8043B01349847A642BA
:1002FC00F9D1094E094D00F083F8761BB61006D0E3
:10030C00002455F8043B01349847A642F9D170BD3E
:10031C0028040008280400083004000828040008F9
:10032C00024B13B1024800F005B870470000000002
:10033C004D030008002301461A46184600F01AB86F
:10034C0038B5084B084D5B1B9C1007D0043B1D4473
:10035C00013C55F804399847002CF9D1BDE83840D8
:10036C0000F054B83404000830040008704700BF93
:10037C00704700BF2DE9F047DFF87CA00646DAF89D
:10038C00000098460F469146FFF7F0FF1B4B1B6889
:10039C00D3F8484124B365681F2D26DC5EB96B1C6D
:1003AC000235DAF80000636044F82570FFF7E0FFCF
:1003BC000020BDE8F087012304EB8501C1F888908B
:1003CC00D4F88821AB401A43022EC4F88821C1F816
:1003DC000881E4D1D4F88C211343C4F88C31DEE7C6
:1003EC0003F5A674C3F84841D5E7DAF80000FFF727
:1003FC00BFFF4FF0FF30DCE7280400202404000886
:10040C00F8B500BFF8BC08BC9E467047F8B500BFF5
:08041C00F8BC08BC9E467047C5
:0404240000000020B4
:080428002D030008310100085A
:040430000D010008B2
:1004340000000000EC02002054030020BC03002054
:1004440000000000000000000000000000000000A8
:100454000000000000000000000000000000000098
:100464000000000000000000000000000000000088
:100474000000000000000000000000000000000078
:100484000000000000000000000000000000000068
:100494000000000000000000000000000000000058
:1004A4000000000000000000000000000000000048
:1004B4000000000000000000000000000000000038
:1004C4000000000000000000000000000000000028
:1004D4000000000000000000010000000000000017
:1004E4000E33CDAB34126DE6ECDE05000B000000DC
:1004F40000000000000000000000000000000000F8
:1005040000000000000000000000000000000000E7
:1005140000000000000000000000000000000000D7
:1005240000000000000000000000000000000000C7
:0C0854000000000000000000480400202C
:040000050800017D71
:00000001FF
