:020000040800F2
:1000000000500020A10200088F02000891020008A1
:100010009302000895020008970200080000000003
:10002000000000000000000000000000990200082D
:100030009B020008000000009D0200089F020008CB
:10004000E9020008E9020008E9020008E9020008E4
:10005000E9020008E9020008A1010008E90200081D
:10006000E9020008E9020008E9020008E9020008C4
:10007000E9020008E9020008E9020008E9020008B4
:10008000E9020008E9020008E9020008E9020008A4
:10009000E9020008E9020008E9020008E902000894
:1000A000E9020008E9020008E9020008E902000884
:1000B0006D020008E9020008E9020008E9020008F0
:1000C000E9020008E9020008E9020008E902000864
:1000D000E9020008E9020008E9020008E902000854
:1000E000E9020008E9020008E90200080000000037
:1000F0000000000000000000000000000000000000
:0C01000000000000000000005FF808F1A3
:10010C0010B5054C237833B9044B13B10448AFF345
:10011C0000800123237010BD2C040020000000007F
:10012C00EC08000808B5034B1BB103490348AFF3B7
:10013C00008008BD0000000030040020EC0800081E
:10014C0030B585B00121052000F09EFA0F4D2C46EC
:10015C0054F8043B039303A90D4800F015FA012150
:10016C00002000F077FA01AB94E8030083E8030069
:10017C00184600F0ADF94FF4C06000F06DF9EB6873
:10018C000093684600F072F905B030BD0409000810
:10019C000008014008B5012000F0E0F9012803D067
:1001AC00012000F0EBF908BD00F034F8F8E700008E
:1001BC0000B583B00121042000F066FA044B1B68E3
:1001CC00019301A9034800F0DFF903B05DF804FBCB
:1001DC00140900080008014000B583B0012110206B
:1001EC0000F052FA044B1B68019301A9034800F07C
:1001FC00CBF903B05DF804FB1809000800100140AE
:10020C0008B501224FF40051014800F01DFA08BD59
:10021C000010014008B54FF400510A4800F00DFAE7
:10022C0048B901224FF4005100F1804000F58830AC
:10023C0000F00AFA08BD00224FF40051014800F00A
:10024C0003FAF7E70010014008B5FFF7C5FFFFF709
:10025C00AFFFFFF775FF00F043F8FFF7D1FFFEE7A4
:10026C0008B501214FF0804000F095FA012800D02C
:10027C0008BDFFF7CFFF01214FF0804000F097FA47
:10028C00F6E77047FEE7FEE7FEE7FEE770477047CC
:10029C007047704700F0B8F80B480C490C4A002323
:1002AC0002E0D458C4500433C4188C42F9D3094A20
:1002BC00094C002301E013600432A242FBD300F08E
:1002CC007BFAFFF7C1FF7047000000202C040020D0
:1002DC003C0900082C0400204C040020FEE7000020
:1002EC0010B584B00121084600F0DCF94FF08040D5
:1002FC0000F04AFA104C01AB94E8070003C31A80D3
:10030C0001A94FF0804000F0DBF9012211464FF0BB
:10031C00804000F02DFA4FF4C06000F09DF8E368C7
:10032C000093684600F0A2F801214FF0804000F0E5
:10033C0011FA04B010BD00BF1C09000882B00023E4
:10034C00019300932C4A136843F4803313602A4BB7
:10035C001B6803F400330093019B01330193009B52
:10036C001BB9019BB3F5A06FF1D1234B1B6813F4A0
:10037C00003F06D001230093009B012B04D002B058
:10038C00704700230093F7E71C4B1A6842F01002E9
:10039C001A601A6822F003021A601A6842F002020C
:1003AC001A60A3F580535A685A605A685A605A68A2
:1003BC0042F480625A605A6822F47C125A605A687D
:1003CC0042F4E8125A601A6842F080721A600A4BC2
:1003DC001B6813F0007FFAD0074B5A6822F0030217
:1003EC005A605A6842F002025A60034B5B6803F091
:1003FC000C03082BF9D1C2E7001002400020024088
:10040C0008B5FFF79BFF08BD08B5104B1A6842F002
:10041C0001021A6059680E4A0A405A601A6822F0A2
:10042C00847222F480321A601A6822F480221A60D4
:10043C005A6822F4FE025A604FF41F029A60FFF7CA
:10044C00DFFF044B4FF000629A6008BD00100240C1
:10045C000000FFF800ED00E040F0BF6040F4003019
:10046C00014BD860704700BF00ED00E0C378FBB1D2
:10047C00154BDA68D243C2F30222C2F1040C0F23EB
:10048C0023FA02F2417801FA0CF1837813400B4302
:10049C001B010278DBB20D490A4482F80033037861
:1004AC0003F01F005B090122824041F823207047B2
:1004BC00037803F01F015B0901228A4020330349B2
:1004CC0041F82320704700BF00ED00E000E100E0A0
:1004DC008379002B35D010B41F4B1A68016822EABF
:1004EC0001021A605A68016822EA01025A60027914
:1004FC0002F1804202F582321168046821431160D6
:10050C009A68016822EA01029A60DA68016822EAB4
:10051C000102DA604379102B09D003F1804303F513
:10052C0082331A6801680A431A6010BC70470A4B80
:10053C009A6801680A439A60DA6801680A43DA60CB
:10054C00F3E7037903F1804303F582331A680168FA
:10055C0022EA01021A60704700040140064A13683F
:10056C0003405269024202D01BB9002070470020A0
:10057C0070470120704700BF00040140014B5861D7
:10058C00704700BF0004014030B5CB7803F00F0278
:10059C00964613F0100F03D091F802E04EEA020ECB
:1005AC000B7803B30468002301E042610133072B8D
:1005BC0018D801229A40B1F800C032EA0C05F5D1E6
:1005CC004FEA830C0F2505FA0CF524EA05040EFA04
:1005DC000CFC4CEA0404CD78282DE6D0482DE5D14E
:1005EC000261E3E704600B88FF2B25D944680023E4
:1005FC0003E0CD78482D1CD00133072B1BD803F119
:10060C00080C012202FA0CF2B1F800C032EA0C0517
:10061C00F2D14FEA830C0F2505FA0CF524EA0504F8
:10062C000EFA0CFC4CEA0404CD78282DE1D1426181
:10063C00DFE70261E0E7446030BD8368194201D016
:10064C0001207047002070470AB101617047416179
:10065C007047000010B401F0030292000F2404FA5A
:10066C0002FC8908074B023153F8214024EA0C04A0
:10067C0043F8214053F821409040044343F8214073
:10068C0010BC70470000014021B1054A9369184322
:10069C0090617047024A936923EA000090617047A9
:1006AC000010024021B1054AD3691843D06170474C
:1006BC00024AD36923EA0000D0617047001002405F
:1006CC0003889BB2214A904212D002F500629042FC
:1006DC000ED0B0F1804F0BD0A2F59832904207D0DB
:1006EC0002F58062904203D002F58062904203D101
:1006FC0023F070034A881343154A904208D002F540
:10070C008062904204D023F440739BB2CA88134396
:10071C0003808B8883850B8803850C4B98420FD004
:10072C0003F5006398420BD003F54063984207D061
:10073C0003F58063984203D003F58063984201D19E
:10074C000B7A038601238382704700BF002C014083
:10075C000010004029B103889BB243F001030380D1
:10076C00704703889BB223F001039BB20380704750
:10077C0022B183899BB21943818170478389C94314
:10078C0089B219408181704703899BB223F007031A
:10079C009BB203817047028A83890B40114202D0BD
:1007AC001BB9002070470020704701207047C943D7
:1007BC0089B201827047000070B50D4E0D4D761B4D
:1007CC00B61006D0002455F8043B01349847A642D5
:1007DC00F9D1094E094D00F083F8761BB61006D0FE
:1007EC00002455F8043B01349847A642F9D170BD5A
:1007FC0030090008300900083809000830090008E1
:10080C00024B13B1024800F005B87047000000001D
:10081C002D080008002301461A46184600F01AB8A5
:10082C0038B5084B084D5B1B9C1007D0043B1D448E
:10083C00013C55F804399847002CF9D1BDE83840F3
:10084C0000F054B83C09000838090008704700BF94
:10085C00704700BF2DE9F047DFF87CA00646DAF8B8
:10086C00000098460F469146FFF7F0FF1B4B1B68A4
:10087C00D3F8484124B365681F2D26DC5EB96B1C88
:10088C000235DAF80000636044F82570FFF7E0FFEA
:10089C000020BDE8F087012304EB8501C1F88890A6
:1008AC00D4F88821AB401A43022EC4F88821C1F831
:1008BC000881E4D1D4F88C211343C4F88C31DEE7E1
:1008CC0003F5A674C3F84841D5E7DAF80000FFF742
:1008DC00BFFF4FF0FF30DCE7280400202C09000894
:1008EC00F8B500BFF8BC08BC9E467047F8B500BF11
:0808FC00F8BC08BC9E467047E1
:100904000100034801000000000C01000601010180
:1009140001000348002003101F1C00000F270000E3
:0C092400000000001C0101010000002088
:080930000D0800083101000868
:040938000D010008A5
:10093C0000000000EC02002054030020BC03002047
:10094C00000000000000000000000000000000009B
:10095C00000000000000000000000000000000008B
:10096C00000000000000000000000000000000007B
:10097C00000000000000000000000000000000006B
:10098C00000000000000000000000000000000005B
:10099C00000000000000000000000000000000004B
:1009AC00000000000000000000000000000000003B
:1009BC00000000000000000000000000000000002B
:1009CC00000000000000000000000000000000001B
:1009DC00000000000000000001000000000000000A
:1009EC000E33CDAB34126DE6ECDE05000B000000CF
:1009FC0000000000000000000000000000000000EB
:100A0C0000000000000000000000000000000000DA
:100A1C0000000000000000000000000000000000CA
:100A2C0000000000000000000000000000000000BA
:0C0D5C000000000000000000480400201F
:04000005080002A14C
:00000001FF
