:020000040800F2
:1000000000500020A9010008950100089701000890
:10001000990100089B0100089D01000800000000F4
:100020000000000000000000000000009F01000828
:10003000A101000800000000A3010008A5010008BC
:10004000F1010008F1010008F1010008F1010008C8
:10005000F1010008F1010008F1010008F1010008B8
:10006000F1010008F1010008F1010008F1010008A8
:10007000F1010008F1010008F1010008F101000898
:10008000F1010008F1010008F1010008F101000888
:10009000F1010008F1010008F1010008F101000878
:1000A000F1010008F1010008F1010008F101000868
:1000B000F1010008F1010008F1010008F101000858
:1000C000F1010008F1010008F1010008F101000848
:1000D000F1010008F1010008F1010008F101000838
:1000E000F1010008F1010008F10100080000000022
:1000F0000000000000000000000000000000000000
:0C01000000000000000000005FF808F1A3
:10010C0010B5054C237833B9044B13B10448AFF345
:10011C0000800123237010BD2C040020000000007F
:10012C001005000808B5034B1BB103490348AFF396
:10013C00008008BD000000003004002010050008FD
:10014C0000B583B00121102000F03AF9044B1B6874
:10015C00019301A9034800F0D5F803B05DF804FB46
:10016C00280500080010014008B500224FF400518A
:10017C00014800F020F908BD0010014008B5FFF758
:10018C00DFFFFFF7F1FFFEE77047FEE7FEE7FEE754
:10019C00FEE77047704770477047000000F08AF820
:1001AC000B480C490C4A002302E0D458C4500433C9
:1001BC00C4188C42F9D3094A094C002301E013609E
:1001CC000432A242FBD300F009F9FFF7D7FF7047C6
:1001DC00000000202C0400203C0500082C0400200A
:1001EC004C040020FEE7000082B000230193009332
:1001FC002C4A136843F4803313602A4B1B6803F4B6
:10020C0000330093019B01330193009B1BB9019BAD
:10021C00B3F5A06FF1D1234B1B6813F4003F06D04C
:10022C0001230093009B012B04D002B070470023E4
:10023C000093F7E71C4B1A6842F010021A601A6818
:10024C0022F003021A601A6842F002021A60A3F547
:10025C0080535A685A605A685A605A6842F48062ED
:10026C005A605A6822F47C125A605A6842F4E812B6
:10027C005A601A6842F080721A600A4B1B6813F0BD
:10028C00007FFAD0074B5A6822F003025A605A6872
:10029C0042F002025A60034B5B6803F00C03082B1C
:1002AC00F9D1C2E7001002400020024008B5FFF768
:1002BC009BFF08BD08B5104B1A6842F001021A608A
:1002CC0059680E4A0A405A601A6822F0847222F465
:1002DC0080321A601A6822F480221A605A6822F45A
:1002EC00FE025A604FF41F029A60FFF7DFFF044BC7
:1002FC004FF000629A6008BD001002400000FFF849
:10030C0000ED00E030B5CB7803F00F02964613F009
:10031C00100F03D091F802E04EEA020E0B7803B3F3
:10032C000468002301E042610133072B18D8012235
:10033C009A40B1F800C032EA0C05F5D14FEA830CB3
:10034C000F2505FA0CF524EA05040EFA0CFC4CEA10
:10035C000404CD78282DE6D0482DE5D10261E3E7E1
:10036C0004600B88FF2B25D94468002303E0CD786B
:10037C00482D1CD00133072B1BD803F1080C01228C
:10038C0002FA0CF2B1F800C032EA0C05F2D14FEAD5
:10039C00830C0F2505FA0CF524EA05040EFA0CFC67
:1003AC004CEA0404CD78282DE1D14261DFE70261EB
:1003BC00E0E7446030BD0AB10161704741617047AC
:1003CC0021B1054A9369184390617047024A9369B9
:1003DC0023EA0000906170470010024070B50D4E8A
:1003EC000D4D761BB61006D0002455F8043B013495
:1003FC009847A642F9D1094E094D00F083F8761BB7
:10040C00B61006D0002455F8043B01349847A64298
:10041C00F9D170BD3005000830050008380500081A
:10042C0030050008024B13B1024800F005B87047C4
:10043C000000000051040008002301461A4618462B
:10044C0000F01AB838B5084B084D5B1B9C1007D050
:10045C00043B1D44013C55F804399847002CF9D154
:10046C00BDE8384000F054B83C05000838050008D9
:10047C00704700BF704700BF2DE9F047DFF87CA044
:10048C000646DAF8000098460F469146FFF7F0FF53
:10049C001B4B1B68D3F8484124B365681F2D26DC21
:1004AC005EB96B1C0235DAF80000636044F8257005
:1004BC00FFF7E0FF0020BDE8F087012304EB850186
:1004CC00C1F88890D4F88821AB401A43022EC4F8A6
:1004DC008821C1F80881E4D1D4F88C211343C4F8E5
:1004EC008C31DEE703F5A674C3F84841D5E7DAF89A
:1004FC000000FFF7BFFF4FF0FF30DCE728040020BF
:10050C002C050008F8B500BFF8BC08BC9E46704727
:0C051C00F8B500BFF8BC08BC9E46704754
:08052800002003100000002078
:0805300031040008310100084C
:040538000D010008A9
:10053C0000000000EC02002054030020BC0300204B
:10054C00000000000000000000000000000000009F
:10055C00000000000000000000000000000000008F
:10056C00000000000000000000000000000000007F
:10057C00000000000000000000000000000000006F
:10058C00000000000000000000000000000000005F
:10059C00000000000000000000000000000000004F
:1005AC00000000000000000000000000000000003F
:1005BC00000000000000000000000000000000002F
:1005CC00000000000000000000000000000000001F
:1005DC00000000000000000001000000000000000E
:1005EC000E33CDAB34126DE6ECDE05000B000000D3
:1005FC0000000000000000000000000000000000EF
:10060C0000000000000000000000000000000000DE
:10061C0000000000000000000000000000000000CE
:10062C0000000000000000000000000000000000BE
:0C095C0000000000000000004804002023
:04000005080001A945
:00000001FF
